{
  "contractName": "HospitalRegistration",
  "abi": [
    {
      "inputs": [
        {
          "internalType": "uint256",
          "name": "",
          "type": "uint256"
        }
      ],
      "name": "hospitals",
      "outputs": [
        {
          "internalType": "string",
          "name": "name",
          "type": "string"
        },
        {
          "internalType": "address",
          "name": "walletAddress",
          "type": "address"
        }
      ],
      "stateMutability": "view",
      "type": "function"
    },
    {
      "inputs": [
        {
          "internalType": "string",
          "name": "name",
          "type": "string"
        },
        {
          "internalType": "address",
          "name": "walletAddress",
          "type": "address"
        }
      ],
      "name": "registerHospital",
      "outputs": [],
      "stateMutability": "nonpayable",
      "type": "function"
    },
    {
      "inputs": [],
      "name": "getHospitalCount",
      "outputs": [
        {
          "internalType": "uint256",
          "name": "",
          "type": "uint256"
        }
      ],
      "stateMutability": "view",
      "type": "function"
    }
  ],
  "bytecode": "0x608060405234801561000f575f80fd5b5061087b8061001d5f395ff3fe608060405234801561000f575f80fd5b506004361061003f575f3560e01c8063793fa72b1461004357806381dc6fd21461005f578063fe45a81d14610090575b5f80fd5b61005d600480360381019061005891906103e5565b6100ae565b005b61007960048036038101906100749190610472565b610160565b604051610087929190610526565b60405180910390f35b610098610233565b6040516100a59190610563565b60405180910390f35b5f60405180604001604052808481526020018373ffffffffffffffffffffffffffffffffffffffff16815250908060018154018082558091505060019003905f5260205f2090600202015f909190919091505f820151815f0190816101139190610776565b506020820151816001015f6101000a81548173ffffffffffffffffffffffffffffffffffffffff021916908373ffffffffffffffffffffffffffffffffffffffff16021790555050505050565b5f818154811061016e575f80fd5b905f5260205f2090600202015f91509050805f01805461018d906105a9565b80601f01602080910402602001604051908101604052809291908181526020018280546101b9906105a9565b80156102045780601f106101db57610100808354040283529160200191610204565b820191905f5260205f20905b8154815290600101906020018083116101e757829003601f168201915b505050505090806001015f9054906101000a900473ffffffffffffffffffffffffffffffffffffffff16905082565b5f8080549050905090565b5f604051905090565b5f80fd5b5f80fd5b5f80fd5b5f80fd5b5f601f19601f8301169050919050565b7f4e487b71000000000000000000000000000000000000000000000000000000005f52604160045260245ffd5b61029d82610257565b810181811067ffffffffffffffff821117156102bc576102bb610267565b5b80604052505050565b5f6102ce61023e565b90506102da8282610294565b919050565b5f67ffffffffffffffff8211156102f9576102f8610267565b5b61030282610257565b9050602081019050919050565b828183375f83830152505050565b5f61032f61032a846102df565b6102c5565b90508281526020810184848401111561034b5761034a610253565b5b61035684828561030f565b509392505050565b5f82601f8301126103725761037161024f565b5b813561038284826020860161031d565b91505092915050565b5f73ffffffffffffffffffffffffffffffffffffffff82169050919050565b5f6103b48261038b565b9050919050565b6103c4816103aa565b81146103ce575f80fd5b50565b5f813590506103df816103bb565b92915050565b5f80604083850312156103fb576103fa610247565b5b5f83013567ffffffffffffffff8111156104185761041761024b565b5b6104248582860161035e565b9250506020610435858286016103d1565b9150509250929050565b5f819050919050565b6104518161043f565b811461045b575f80fd5b50565b5f8135905061046c81610448565b92915050565b5f6020828403121561048757610486610247565b5b5f6104948482850161045e565b91505092915050565b5f81519050919050565b5f82825260208201905092915050565b5f5b838110156104d45780820151818401526020810190506104b9565b5f8484015250505050565b5f6104e98261049d565b6104f381856104a7565b93506105038185602086016104b7565b61050c81610257565b840191505092915050565b610520816103aa565b82525050565b5f6040820190508181035f83015261053e81856104df565b905061054d6020830184610517565b9392505050565b61055d8161043f565b82525050565b5f6020820190506105765f830184610554565b92915050565b7f4e487b71000000000000000000000000000000000000000000000000000000005f52602260045260245ffd5b5f60028204905060018216806105c057607f821691505b6020821081036105d3576105d261057c565b5b50919050565b5f819050815f5260205f209050919050565b5f6020601f8301049050919050565b5f82821b905092915050565b5f600883026106357fffffffffffffffffffffffffffffffffffffffffffffffffffffffffffffffff826105fa565b61063f86836105fa565b95508019841693508086168417925050509392505050565b5f819050919050565b5f61067a6106756106708461043f565b610657565b61043f565b9050919050565b5f819050919050565b61069383610660565b6106a761069f82610681565b848454610606565b825550505050565b5f90565b6106bb6106af565b6106c681848461068a565b505050565b5b818110156106e9576106de5f826106b3565b6001810190506106cc565b5050565b601f82111561072e576106ff816105d9565b610708846105eb565b81016020851015610717578190505b61072b610723856105eb565b8301826106cb565b50505b505050565b5f82821c905092915050565b5f61074e5f1984600802610733565b1980831691505092915050565b5f610766838361073f565b9150826002028217905092915050565b61077f8261049d565b67ffffffffffffffff81111561079857610797610267565b5b6107a282546105a9565b6107ad8282856106ed565b5f60209050601f8311600181146107de575f84156107cc578287015190505b6107d6858261075b565b86555061083d565b601f1984166107ec866105d9565b5f5b82811015610813578489015182556001820191506020850194506020810190506107ee565b86831015610830578489015161082c601f89168261073f565b8355505b6001600288020188555050505b50505050505056fea2646970667358221220a3b6466bf86a1b3d1d96b63015b50e2b940c642448a1c064ce015814f0debdff64736f6c63430008150033",
  "immutableReferences": {},
  "source": "// SPDX-License-Identifier: MIT\r\npragma solidity ^0.8.21;\r\n\r\ncontract HospitalRegistration {\r\n    struct Hospital {\r\n        string name;\r\n        address walletAddress;\r\n    }\r\n\r\n    Hospital[] public hospitals;\r\n\r\n    function registerHospital(string memory name, address walletAddress) public {\r\n        hospitals.push(Hospital(name, walletAddress));\r\n    }\r\n\r\n    function getHospitalCount() public view returns (uint) {\r\n        return hospitals.length;\r\n    }\r\n}",
  "sourcePath": "C:\\Users\\saina\\Downloads\\Labsky-1.0.0 (1)\\organDonation\\contracts\\HospitalRegistration.sol",
  "compiler": {
    "name": "solc",
    "version": "0.8.21+commit.d9974bed.Emscripten.clang"
  },
  "schemaVersion": "3.4.16",
  "updatedAt": "2024-05-10T10:33:27.724Z",
  "devdoc": {
    "kind": "dev",
    "methods": {},
    "version": 1
  },
  "userdoc": {
    "kind": "user",
    "methods": {},
    "version": 1
  }
}